{
  "contractName": "LockedWallet",
  "abi": [
    {
      "constant": true,
      "inputs": [],
      "name": "amountPerPeriod",
      "outputs": [
        {
          "name": "",
          "type": "uint256"
        }
      ],
      "payable": false,
      "stateMutability": "view",
      "type": "function"
    },
    {
      "constant": true,
      "inputs": [],
      "name": "depositedAmount",
      "outputs": [
        {
          "name": "",
          "type": "uint256"
        }
      ],
      "payable": false,
      "stateMutability": "view",
      "type": "function"
    },
    {
      "constant": false,
      "inputs": [],
      "name": "renounceOwnership",
      "outputs": [],
      "payable": false,
      "stateMutability": "nonpayable",
      "type": "function"
    },
    {
      "constant": true,
      "inputs": [],
      "name": "depositedTime",
      "outputs": [
        {
          "name": "",
          "type": "uint256"
        }
      ],
      "payable": false,
      "stateMutability": "view",
      "type": "function"
    },
    {
      "constant": true,
      "inputs": [],
      "name": "owner",
      "outputs": [
        {
          "name": "",
          "type": "address"
        }
      ],
      "payable": false,
      "stateMutability": "view",
      "type": "function"
    },
    {
      "constant": true,
      "inputs": [],
      "name": "isOwner",
      "outputs": [
        {
          "name": "",
          "type": "bool"
        }
      ],
      "payable": false,
      "stateMutability": "view",
      "type": "function"
    },
    {
      "constant": true,
      "inputs": [
        {
          "name": "",
          "type": "uint256"
        }
      ],
      "name": "withdrawalByPeriod",
      "outputs": [
        {
          "name": "",
          "type": "uint256"
        }
      ],
      "payable": false,
      "stateMutability": "view",
      "type": "function"
    },
    {
      "constant": true,
      "inputs": [],
      "name": "periodLength",
      "outputs": [
        {
          "name": "",
          "type": "uint256"
        }
      ],
      "payable": false,
      "stateMutability": "view",
      "type": "function"
    },
    {
      "constant": false,
      "inputs": [
        {
          "name": "newOwner",
          "type": "address"
        }
      ],
      "name": "transferOwnership",
      "outputs": [],
      "payable": false,
      "stateMutability": "nonpayable",
      "type": "function"
    },
    {
      "constant": true,
      "inputs": [],
      "name": "token",
      "outputs": [
        {
          "name": "",
          "type": "address"
        }
      ],
      "payable": false,
      "stateMutability": "view",
      "type": "function"
    },
    {
      "inputs": [
        {
          "name": "newPeriodLength",
          "type": "uint256"
        },
        {
          "name": "newAmountPerPeriod",
          "type": "uint256"
        },
        {
          "name": "tokenAddress",
          "type": "address"
        }
      ],
      "payable": false,
      "stateMutability": "nonpayable",
      "type": "constructor"
    },
    {
      "anonymous": false,
      "inputs": [
        {
          "indexed": false,
          "name": "period",
          "type": "uint256"
        },
        {
          "indexed": false,
          "name": "amount",
          "type": "uint256"
        },
        {
          "indexed": false,
          "name": "timestamp",
          "type": "uint256"
        }
      ],
      "name": "Withdrawn",
      "type": "event"
    },
    {
      "anonymous": false,
      "inputs": [
        {
          "indexed": true,
          "name": "previousOwner",
          "type": "address"
        },
        {
          "indexed": true,
          "name": "newOwner",
          "type": "address"
        }
      ],
      "name": "OwnershipTransferred",
      "type": "event"
    },
    {
      "constant": false,
      "inputs": [
        {
          "name": "amount",
          "type": "uint256"
        }
      ],
      "name": "deposit",
      "outputs": [],
      "payable": false,
      "stateMutability": "nonpayable",
      "type": "function"
    },
    {
      "constant": false,
      "inputs": [],
      "name": "withdraw",
      "outputs": [],
      "payable": false,
      "stateMutability": "nonpayable",
      "type": "function"
    },
    {
      "constant": true,
      "inputs": [],
      "name": "balance",
      "outputs": [
        {
          "name": "",
          "type": "uint256"
        }
      ],
      "payable": false,
      "stateMutability": "view",
      "type": "function"
    }
  ],
  "bytecode": "0x608060405234801561001057600080fd5b50604051606080610a188339810180604052606081101561003057600080fd5b508051602082015160409283015160008054600160a060020a03191633178082559451939492939192600160a060020a0316917f8be0079c531659141344cd1fd0a4f28419497f9722a3daafe3b4186f6b6457e0908290a3600160a060020a038116151561009d57600080fd5b600083116100aa57600080fd5b600082116100b757600080fd5b60048054600160a060020a031916600160a060020a0392909216919091179055600291909155600355610929806100ef6000396000f3fe6080604052600436106100c45763ffffffff7c0100000000000000000000000000000000000000000000000000000000600035041663029c6c9f81146100c95780631d01364c146100f05780633ccfd60b14610105578063715018a61461011c5780637815f86a146101315780638da5cb5b146101465780638f32d59b14610177578063b69ef8a8146101a0578063b6b55f25146101b5578063cbdc6b04146101df578063d2ca211514610209578063f2fde38b1461021e578063fc0c546a14610251575b600080fd5b3480156100d557600080fd5b506100de610266565b60408051918252519081900360200190f35b3480156100fc57600080fd5b506100de61026c565b34801561011157600080fd5b5061011a610272565b005b34801561012857600080fd5b5061011a6105d4565b34801561013d57600080fd5b506100de61063e565b34801561015257600080fd5b5061015b610644565b60408051600160a060020a039092168252519081900360200190f35b34801561018357600080fd5b5061018c610653565b604080519115158252519081900360200190f35b3480156101ac57600080fd5b506100de610664565b3480156101c157600080fd5b5061011a600480360360208110156101d857600080fd5b50356106fd565b3480156101eb57600080fd5b506100de6004803603602081101561020257600080fd5b5035610801565b34801561021557600080fd5b506100de610813565b34801561022a57600080fd5b5061011a6004803603602081101561024157600080fd5b5035600160a060020a0316610819565b34801561025d57600080fd5b5061015b610838565b60035481565b60055481565b61027a610653565b151561028557600080fd5b6001546000106102df576040805160e560020a62461bcd02815260206004820152600d60248201527f6e6f74206465706f736974656400000000000000000000000000000000000000604482015290519081900360640190fd5b60006103086002546102fc6001544261084790919063ffffffff16565b9063ffffffff61085c16565b905060008111610362576040805160e560020a62461bcd02815260206004820152601060248201527f696e76616c696420706572696f64203100000000000000000000000000000000604482015290519081900360640190fd5b600081815260066020526040902054156103c6576040805160e560020a62461bcd02815260206004820152601160248201527f616c72656164792077697468647261776e000000000000000000000000000000604482015290519081900360640190fd5b60048054604080517f70a08231000000000000000000000000000000000000000000000000000000008152309381019390935251600092600160a060020a03909216916370a08231916024808301926020929190829003018186803b15801561042e57600080fd5b505afa158015610442573d6000803e3d6000fd5b505050506040513d602081101561045857600080fd5b5051600354909150600090821161046f5781610473565b6003545b9050600081116104cd576040805160e560020a62461bcd02815260206004820152600560248201527f656d707479000000000000000000000000000000000000000000000000000000604482015290519081900360640190fd5b6000838152600660209081526040918290208390558151858152908101839052428183015290517fabd2ab552bc04cdbfa4a54107fa44ac8c9cb06f6d21da11933ac05a653be19e99181900360600190a1600454600160a060020a031663a9059cbb610537610644565b836040518363ffffffff167c01000000000000000000000000000000000000000000000000000000000281526004018083600160a060020a0316600160a060020a0316815260200182815260200192505050602060405180830381600087803b1580156105a357600080fd5b505af11580156105b7573d6000803e3d6000fd5b505050506040513d60208110156105cd57600080fd5b5050505050565b6105dc610653565b15156105e757600080fd5b60008054604051600160a060020a03909116907f8be0079c531659141344cd1fd0a4f28419497f9722a3daafe3b4186f6b6457e0908390a36000805473ffffffffffffffffffffffffffffffffffffffff19169055565b60015481565b600054600160a060020a031690565b600054600160a060020a0316331490565b60048054604080517f70a08231000000000000000000000000000000000000000000000000000000008152309381019390935251600092600160a060020a03909216916370a08231916024808301926020929190829003018186803b1580156106cc57600080fd5b505afa1580156106e0573d6000803e3d6000fd5b505050506040513d60208110156106f657600080fd5b5051905090565b60015415610755576040805160e560020a62461bcd02815260206004820152601160248201527f616c7265616479206465706f7369746564000000000000000000000000000000604482015290519081900360640190fd5b42600155600581905560048054604080517f23b872dd00000000000000000000000000000000000000000000000000000000815233938101939093523060248401526044830184905251600160a060020a03909116916323b872dd9160648083019260209291908290030181600087803b1580156107d257600080fd5b505af11580156107e6573d6000803e3d6000fd5b505050506040513d60208110156107fc57600080fd5b505050565b60066020526000908152604090205481565b60025481565b610821610653565b151561082c57600080fd5b61083581610880565b50565b600454600160a060020a031681565b60008282111561085657600080fd5b50900390565b600080821161086a57600080fd5b6000828481151561087757fe5b04949350505050565b600160a060020a038116151561089557600080fd5b60008054604051600160a060020a03808516939216917f8be0079c531659141344cd1fd0a4f28419497f9722a3daafe3b4186f6b6457e091a36000805473ffffffffffffffffffffffffffffffffffffffff1916600160a060020a039290921691909117905556fea165627a7a72305820b079d1a17908968592b8a5ed8a09761fa5b471d77126d9e4a962dbb5b1a89e740029",
  "source": "pragma solidity ^0.5.0;\n\nimport \"openzeppelin-solidity/contracts/ownership/Ownable.sol\";\nimport \"openzeppelin-solidity/contracts/token/ERC20/IERC20.sol\";\nimport \"openzeppelin-solidity/contracts/math/SafeMath.sol\";\n\n\ncontract LockedWallet is Ownable {\n    using SafeMath for uint256;\n\n    event Withdrawn (\n        uint256 period,\n        uint256 amount,\n        uint256 timestamp\n    );\n\n    uint256 public depositedTime;\n    uint256 public periodLength;\n    uint256 public amountPerPeriod;\n    IERC20 public token;\n    uint256 public depositedAmount;\n    mapping(uint256 => uint256) public withdrawalByPeriod;\n\n    constructor(uint256 newPeriodLength, uint256 newAmountPerPeriod, address tokenAddress) public {\n        require(tokenAddress != address(0));\n        require(newPeriodLength > 0);\n        require(newAmountPerPeriod > 0);\n\n        token = IERC20(tokenAddress);\n        periodLength = newPeriodLength;\n        amountPerPeriod = newAmountPerPeriod;\n    }\n\n    function deposit(uint256 amount) public {\n        require(depositedTime == 0, \"already deposited\");\n\n        depositedTime = now;\n        depositedAmount = amount;\n\n        token.transferFrom(msg.sender, address(this), amount);\n    }\n\n    function withdraw() public onlyOwner {\n        require(depositedTime > 0, \"not deposited\");\n\n        uint256 currentPeriod = now.sub(depositedTime).div(periodLength);\n        require(currentPeriod > 0, \"invalid period 1\");\n        require(withdrawalByPeriod[currentPeriod] == 0, \"already withdrawn\");\n\n        uint256 balance = token.balanceOf(address(this));\n        uint256 amount = amountPerPeriod < balance ? amountPerPeriod : balance;\n        require(amount > 0, \"empty\");\n\n        withdrawalByPeriod[currentPeriod] = amount;\n\n        emit Withdrawn(currentPeriod, amount, now);\n\n        token.transfer(owner(), amount);\n    }\n\n    function balance() public view returns (uint256) {\n        return token.balanceOf(address(this));\n    }\n}\n",
  "sourcePath": "/Users/yoonjae/SolidityProjects/locked-wallet/contracts/LockedWallet.sol",
  "compiler": {
    "name": "solc",
    "version": "0.5.0+commit.1d4f565a.Emscripten.clang"
  },
  "schemaVersion": "3.0.2",
  "updatedAt": "2019-02-20T06:17:34.088Z",
  "devdoc": {
    "methods": {
      "isOwner()": {
        "return": "true if `msg.sender` is the owner of the contract."
      },
      "owner()": {
        "return": "the address of the owner."
      },
      "renounceOwnership()": {
        "details": "Allows the current owner to relinquish control of the contract."
      },
      "transferOwnership(address)": {
        "details": "Allows the current owner to transfer control of the contract to a newOwner.",
        "params": {
          "newOwner": "The address to transfer ownership to."
        }
      }
    }
  },
  "userdoc": {
    "methods": {
      "renounceOwnership()": {
        "notice": "Renouncing to ownership will leave the contract without an owner. It will not be possible to call the functions with the `onlyOwner` modifier anymore."
      }
    }
  }
}